{
  "_format": "hh-sol-artifact-1",
  "contractName": "Voting",
  "sourceName": "contracts/Voting.sol",
  "abi": [
    {
      "inputs": [
        {
          "internalType": "string[]",
          "name": "_candidateNames",
          "type": "string[]"
        },
        {
          "internalType": "uint256",
          "name": "_durationInMinutes",
          "type": "uint256"
        }
      ],
      "stateMutability": "nonpayable",
      "type": "constructor"
    },
    {
      "inputs": [
        {
          "internalType": "string",
          "name": "_name",
          "type": "string"
        }
      ],
      "name": "addCandidate",
      "outputs": [],
      "stateMutability": "nonpayable",
      "type": "function"
    },
    {
      "inputs": [
        {
          "internalType": "uint256",
          "name": "",
          "type": "uint256"
        }
      ],
      "name": "candidates",
      "outputs": [
        {
          "internalType": "string",
          "name": "name",
          "type": "string"
        },
        {
          "internalType": "uint256",
          "name": "voteCount",
          "type": "uint256"
        }
      ],
      "stateMutability": "view",
      "type": "function"
    },
    {
      "inputs": [],
      "name": "getAllVotesOfCandiates",
      "outputs": [
        {
          "components": [
            {
              "internalType": "string",
              "name": "name",
              "type": "string"
            },
            {
              "internalType": "uint256",
              "name": "voteCount",
              "type": "uint256"
            }
          ],
          "internalType": "struct Voting.Candidate[]",
          "name": "",
          "type": "tuple[]"
        }
      ],
      "stateMutability": "view",
      "type": "function"
    },
    {
      "inputs": [],
      "name": "getRemainingTime",
      "outputs": [
        {
          "internalType": "uint256",
          "name": "",
          "type": "uint256"
        }
      ],
      "stateMutability": "view",
      "type": "function"
    },
    {
      "inputs": [],
      "name": "getVotingStatus",
      "outputs": [
        {
          "internalType": "bool",
          "name": "",
          "type": "bool"
        }
      ],
      "stateMutability": "view",
      "type": "function"
    },
    {
      "inputs": [
        {
          "internalType": "uint256",
          "name": "_candidateIndex",
          "type": "uint256"
        }
      ],
      "name": "vote",
      "outputs": [],
      "stateMutability": "nonpayable",
      "type": "function"
    },
    {
      "inputs": [
        {
          "internalType": "address",
          "name": "",
          "type": "address"
        }
      ],
      "name": "voters",
      "outputs": [
        {
          "internalType": "bool",
          "name": "",
          "type": "bool"
        }
      ],
      "stateMutability": "view",
      "type": "function"
    },
    {
      "inputs": [],
      "name": "votingEnd",
      "outputs": [
        {
          "internalType": "uint256",
          "name": "",
          "type": "uint256"
        }
      ],
      "stateMutability": "view",
      "type": "function"
    },
    {
      "inputs": [],
      "name": "votingStart",
      "outputs": [
        {
          "internalType": "uint256",
          "name": "",
          "type": "uint256"
        }
      ],
      "stateMutability": "view",
      "type": "function"
    }
  ],
  "bytecode": "0x60806040523480156200001157600080fd5b50604051620015fd380380620015fd8339818101604052810190620000379190620004da565b60005b8251811015620000e3576000604051806040016040528085848151811062000067576200006662000540565b5b60200260200101518152602001600081525090806001815401808255809150506001900390600052602060002090600202016000909190919091506000820151816000019080519060200190620000c092919062000156565b506020820151816001015550508080620000da906200059e565b9150506200003a565b5033600160006101000a81548173ffffffffffffffffffffffffffffffffffffffff021916908373ffffffffffffffffffffffffffffffffffffffff16021790555042600381905550603c816200013b9190620005ec565b426200014891906200064d565b60048190555050506200070f565b8280546200016490620006d9565b90600052602060002090601f016020900481019282620001885760008555620001d4565b82601f10620001a357805160ff1916838001178555620001d4565b82800160010185558215620001d4579182015b82811115620001d3578251825591602001919060010190620001b6565b5b509050620001e39190620001e7565b5090565b5b8082111562000202576000816000905550600101620001e8565b5090565b6000604051905090565b600080fd5b600080fd5b600080fd5b6000601f19601f8301169050919050565b7f4e487b7100000000000000000000000000000000000000000000000000000000600052604160045260246000fd5b6200026a826200021f565b810181811067ffffffffffffffff821117156200028c576200028b62000230565b5b80604052505050565b6000620002a162000206565b9050620002af82826200025f565b919050565b600067ffffffffffffffff821115620002d257620002d162000230565b5b602082029050602081019050919050565b600080fd5b600080fd5b600067ffffffffffffffff8211156200030b576200030a62000230565b5b62000316826200021f565b9050602081019050919050565b60005b838110156200034357808201518184015260208101905062000326565b8381111562000353576000848401525b50505050565b6000620003706200036a84620002ed565b62000295565b9050828152602081018484840111156200038f576200038e620002e8565b5b6200039c84828562000323565b509392505050565b600082601f830112620003bc57620003bb6200021a565b5b8151620003ce84826020860162000359565b91505092915050565b6000620003ee620003e884620002b4565b62000295565b90508083825260208201905060208402830185811115620004145762000413620002e3565b5b835b818110156200046257805167ffffffffffffffff8111156200043d576200043c6200021a565b5b8086016200044c8982620003a4565b8552602085019450505060208101905062000416565b5050509392505050565b600082601f8301126200048457620004836200021a565b5b815162000496848260208601620003d7565b91505092915050565b6000819050919050565b620004b4816200049f565b8114620004c057600080fd5b50565b600081519050620004d481620004a9565b92915050565b60008060408385031215620004f457620004f362000210565b5b600083015167ffffffffffffffff81111562000515576200051462000215565b5b62000523858286016200046c565b92505060206200053685828601620004c3565b9150509250929050565b7f4e487b7100000000000000000000000000000000000000000000000000000000600052603260045260246000fd5b7f4e487b7100000000000000000000000000000000000000000000000000000000600052601160045260246000fd5b6000620005ab826200049f565b91507fffffffffffffffffffffffffffffffffffffffffffffffffffffffffffffffff821415620005e157620005e06200056f565b5b600182019050919050565b6000620005f9826200049f565b915062000606836200049f565b9250817fffffffffffffffffffffffffffffffffffffffffffffffffffffffffffffffff04831182151516156200064257620006416200056f565b5b828202905092915050565b60006200065a826200049f565b915062000667836200049f565b9250827fffffffffffffffffffffffffffffffffffffffffffffffffffffffffffffffff038211156200069f576200069e6200056f565b5b828201905092915050565b7f4e487b7100000000000000000000000000000000000000000000000000000000600052602260045260246000fd5b60006002820490506001821680620006f257607f821691505b60208210811415620007095762000708620006aa565b5b50919050565b610ede806200071f6000396000f3fe608060405234801561001057600080fd5b50600436106100935760003560e01c80634d6bda5f116100665780634d6bda5f1461011f578063581c281c1461013d57806385a386351461015b578063a3ec138d14610179578063efb98bcf146101a957610093565b80630121b93f14610098578063101158af146100b45780633477ee2e146100d2578063462e91ec14610103575b600080fd5b6100b260048036038101906100ad919061074f565b6101c7565b005b6100bc610331565b6040516100c9919061078b565b60405180910390f35b6100ec60048036038101906100e7919061074f565b610337565b6040516100fa92919061083f565b60405180910390f35b61011d600480360381019061011891906109a4565b6103f3565b005b6101276104ba565b6040516101349190610b45565b60405180910390f35b6101456105b5565b6040516101529190610b82565b60405180910390f35b6101636105cf565b604051610170919061078b565b60405180910390f35b610193600480360381019061018e9190610bfb565b6105d5565b6040516101a09190610b82565b60405180910390f35b6101b16105f5565b6040516101be919061078b565b60405180910390f35b600260003373ffffffffffffffffffffffffffffffffffffffff1673ffffffffffffffffffffffffffffffffffffffff16815260200190815260200160002060009054906101000a900460ff1615610254576040517f08c379a000000000000000000000000000000000000000000000000000000000815260040161024b90610c74565b60405180910390fd5b600080549050811061029b576040517f08c379a000000000000000000000000000000000000000000000000000000000815260040161029290610ce0565b60405180910390fd5b600081815481106102af576102ae610d00565b5b906000526020600020906002020160010160008154809291906102d190610d5e565b91905055506001600260003373ffffffffffffffffffffffffffffffffffffffff1673ffffffffffffffffffffffffffffffffffffffff16815260200190815260200160002060006101000a81548160ff02191690831515021790555050565b60035481565b6000818154811061034757600080fd5b906000526020600020906002020160009150905080600001805461036a90610dd6565b80601f016020809104026020016040519081016040528092919081815260200182805461039690610dd6565b80156103e35780601f106103b8576101008083540402835291602001916103e3565b820191906000526020600020905b8154815290600101906020018083116103c657829003601f168201915b5050505050908060010154905082565b600160009054906101000a900473ffffffffffffffffffffffffffffffffffffffff1673ffffffffffffffffffffffffffffffffffffffff163373ffffffffffffffffffffffffffffffffffffffff161461044d57600080fd5b600060405180604001604052808381526020016000815250908060018154018082558091505060019003906000526020600020906002020160009091909190915060008201518160000190805190602001906104aa929190610662565b5060208201518160010155505050565b60606000805480602002602001604051908101604052809291908181526020016000905b828210156105ac578382906000526020600020906002020160405180604001604052908160008201805461051190610dd6565b80601f016020809104026020016040519081016040528092919081815260200182805461053d90610dd6565b801561058a5780601f1061055f5761010080835404028352916020019161058a565b820191906000526020600020905b81548152906001019060200180831161056d57829003601f168201915b50505050508152602001600182015481525050815260200190600101906104de565b50505050905090565b600060035442101580156105ca575060045442105b905090565b60045481565b60026020528060005260406000206000915054906101000a900460ff1681565b600060035442101561063c576040517f08c379a000000000000000000000000000000000000000000000000000000000815260040161063390610e54565b60405180910390fd5b600454421061064e576000905061065f565b4260045461065c9190610e74565b90505b90565b82805461066e90610dd6565b90600052602060002090601f01602090048101928261069057600085556106d7565b82601f106106a957805160ff19168380011785556106d7565b828001600101855582156106d7579182015b828111156106d65782518255916020019190600101906106bb565b5b5090506106e491906106e8565b5090565b5b808211156107015760008160009055506001016106e9565b5090565b6000604051905090565b600080fd5b600080fd5b6000819050919050565b61072c81610719565b811461073757600080fd5b50565b60008135905061074981610723565b92915050565b6000602082840312156107655761076461070f565b5b60006107738482850161073a565b91505092915050565b61078581610719565b82525050565b60006020820190506107a0600083018461077c565b92915050565b600081519050919050565b600082825260208201905092915050565b60005b838110156107e05780820151818401526020810190506107c5565b838111156107ef576000848401525b50505050565b6000601f19601f8301169050919050565b6000610811826107a6565b61081b81856107b1565b935061082b8185602086016107c2565b610834816107f5565b840191505092915050565b600060408201905081810360008301526108598185610806565b9050610868602083018461077c565b9392505050565b600080fd5b600080fd5b7f4e487b7100000000000000000000000000000000000000000000000000000000600052604160045260246000fd5b6108b1826107f5565b810181811067ffffffffffffffff821117156108d0576108cf610879565b5b80604052505050565b60006108e3610705565b90506108ef82826108a8565b919050565b600067ffffffffffffffff82111561090f5761090e610879565b5b610918826107f5565b9050602081019050919050565b82818337600083830152505050565b6000610947610942846108f4565b6108d9565b90508281526020810184848401111561096357610962610874565b5b61096e848285610925565b509392505050565b600082601f83011261098b5761098a61086f565b5b813561099b848260208601610934565b91505092915050565b6000602082840312156109ba576109b961070f565b5b600082013567ffffffffffffffff8111156109d8576109d7610714565b5b6109e484828501610976565b91505092915050565b600081519050919050565b600082825260208201905092915050565b6000819050602082019050919050565b600082825260208201905092915050565b6000610a35826107a6565b610a3f8185610a19565b9350610a4f8185602086016107c2565b610a58816107f5565b840191505092915050565b610a6c81610719565b82525050565b60006040830160008301518482036000860152610a8f8282610a2a565b9150506020830151610aa46020860182610a63565b508091505092915050565b6000610abb8383610a72565b905092915050565b6000602082019050919050565b6000610adb826109ed565b610ae581856109f8565b935083602082028501610af785610a09565b8060005b85811015610b335784840389528151610b148582610aaf565b9450610b1f83610ac3565b925060208a01995050600181019050610afb565b50829750879550505050505092915050565b60006020820190508181036000830152610b5f8184610ad0565b905092915050565b60008115159050919050565b610b7c81610b67565b82525050565b6000602082019050610b976000830184610b73565b92915050565b600073ffffffffffffffffffffffffffffffffffffffff82169050919050565b6000610bc882610b9d565b9050919050565b610bd881610bbd565b8114610be357600080fd5b50565b600081359050610bf581610bcf565b92915050565b600060208284031215610c1157610c1061070f565b5b6000610c1f84828501610be6565b91505092915050565b7f596f75206861766520616c726561647920766f7465642e000000000000000000600082015250565b6000610c5e6017836107b1565b9150610c6982610c28565b602082019050919050565b60006020820190508181036000830152610c8d81610c51565b9050919050565b7f496e76616c69642063616e64696461746520696e6465782e0000000000000000600082015250565b6000610cca6018836107b1565b9150610cd582610c94565b602082019050919050565b60006020820190508181036000830152610cf981610cbd565b9050919050565b7f4e487b7100000000000000000000000000000000000000000000000000000000600052603260045260246000fd5b7f4e487b7100000000000000000000000000000000000000000000000000000000600052601160045260246000fd5b6000610d6982610719565b91507fffffffffffffffffffffffffffffffffffffffffffffffffffffffffffffffff821415610d9c57610d9b610d2f565b5b600182019050919050565b7f4e487b7100000000000000000000000000000000000000000000000000000000600052602260045260246000fd5b60006002820490506001821680610dee57607f821691505b60208210811415610e0257610e01610da7565b5b50919050565b7f566f74696e6720686173206e6f742073746172746564207965742e0000000000600082015250565b6000610e3e601b836107b1565b9150610e4982610e08565b602082019050919050565b60006020820190508181036000830152610e6d81610e31565b9050919050565b6000610e7f82610719565b9150610e8a83610719565b925082821015610e9d57610e9c610d2f565b5b82820390509291505056fea26469706673582212204866756ce35858da91a988e69788539feca68b425aa97ac5e1d749cfee03279664736f6c634300080b0033",
  "linkReferences": {},
  "deployedLinkReferences": {}
}